:020000040800F2
:1000000000800120B13900086D0E00086F0E000855
:10001000710E0008730E0008750E00080000000045
:10002000000000000000000000000000770E000843
:10003000790E0008000000007B0E00087D0E00080D
:10004000013A0008013A0008013A0008013A0008A4
:10005000013A0008013A0008013A0008013A000894
:10006000013A0008013A0008013A0008013A000884
:10007000013A0008013A0008013A0008850E00081C
:10008000013A0008013A0008013A0008013A000864
:10009000013A0008013A0008013A0008950E0008EC
:1000A000013A0008013A0008013A0008013A000844
:1000B000013A0008013A0008013A0008013A000834
:1000C000013A0008013A0008013A0008013A000824
:1000D000013A0008B50E0008013A0008013A00088C
:1000E000C50E0008013A0008013A0008013A00086C
:1000F000013A0008013A0008013A0008013A0008F4
:10010000013A0008013A0008013A0008013A0008E3
:10011000013A0008013A0008013A0008013A0008D3
:10012000013A0008013A0008013A0008013A0008C3
:10013000013A0008013A0008013A0008013A0008B3
:10014000013A0008013A0008013A0008013A0008A3
:10015000013A0008013A0008013A0008013A000893
:10016000013A0008013A0008013A0008013A000883
:10017000013A0008013A00080000000000000000F9
:08018000013A0008013A0008F1
:1001880010B5054C237833B9044B13B10448AFF3C9
:1001980000800123237010BD100000200000000023
:1001A8005C3A000808B5034B1BB103490348AFF399
:1001B800008008BD00000000140000205C3A000820
:1001C80053B94AB9002908BF00281CBF4FF0FF31B6
:1001D8004FF0FF3000F074B9ADF1080C6DE904CEB2
:1001E80000F006F8DDF804E0DDE9022304B070470A
:1001F8002DE9F047089D04468E46002B4DD18A42D2
:10020800944669D9B2FA82F252B101FA02F3C2F104
:10021800200120FA01F10CFA02FC41EA030E944095
:100228004FEA1C48210CBEFBF8F61FFA8CF708FBB6
:1002380016E341EA034306FB07F199420AD91CEB8E
:10024800030306F1FF3080F01F81994240F21C81C0
:10025800023E63445B1AA4B2B3FBF8F008FB103308
:1002680044EA034400FB07F7A7420AD91CEB04043D
:1002780000F1FF3380F00A81A74240F2078164440D
:10028800023840EA0640E41B00261DB1D440002392
:10029800C5E900433146BDE8F0878B4209D9002DF6
:1002A80000F0EF800026C5E9000130463146BDE880
:1002B800F087B3FA83F6002E4AD18B4202D38242EA
:1002C80000F2F980841A61EB030301209E46002D99
:1002D800E0D0C5E9004EDDE702B9FFDEB2FA82F2EE
:1002E800002A40F09280A1EB0C014FEA1C471FFA4C
:1002F8008CFE0126200CB1FBF7F307FB131140EA33
:1003080001410EFB03F0884208D91CEB010103F1FF
:10031800FF3802D2884200F2CB804346091AA4B2C1
:10032800B1FBF7F007FB101144EA01440EFB00FE95
:10033800A64508D91CEB040400F1FF3102D2A645FA
:1003480000F2BB800846A4EB0E0440EA03409CE799
:10035800C6F12007B34022FA07FC4CEA030C20FA46
:1003680007F401FA06F31C43F9404FEA1C4900FA66
:1003780006F3B1FBF9F8200C1FFA8CFE09FB1811E3
:1003880040EA014108FB0EF0884202FA06F20BD956
:100398001CEB010108F1FF3A80F08880884240F2A6
:1003A8008580A8F102086144091AA4B2B1FBF9F0EA
:1003B80009FB101144EA014100FB0EFE8E4508D9E5
:1003C8001CEB010100F1FF346CD28E456AD902386A
:1003D800614440EA0840A0FB0294A1EB0E01A1424F
:1003E800C846A64656D353D05DB1B3EB080261EBBD
:1003F8000E0101FA07F722FA06F3F1401F43C5E997
:10040800007100263146BDE8F087C2F12003D840CC
:100418000CFA02FC21FA03F3914001434FEA1C470E
:100428001FFA8CFEB3FBF7F007FB10360B0C43EA00
:10043800064300FB0EF69E4204FA02F408D91CEBB0
:10044800030300F1FF382FD29E422DD902386344AE
:100458009B1B89B2B3FBF7F607FB163341EA03414E
:1004680006FB0EF38B4208D91CEB010106F1FF389D
:1004780016D28B4214D9023E6144C91A46EA004694
:1004880038E72E46284605E70646E3E61846F8E626
:100498004B45A9D2B9EB020864EB0C0E0138A3E76F
:1004A8004646EAE7204694E74046D1E7D0467BE750
:1004B800023B614432E7304609E76444023842E7C8
:1004C800704700BF72B6FEE700B597B0442200211E
:1004D80005A803F0B7FA002300930193029303934E
:1004E80004934FF4007002F051F9002831D102F062
:1004F8003DF91B4AD2F8903023F01803C2F8903027
:1005080014230593012307930B9300220C92602276
:100518000D9202220F92109311932823129307230E
:1005280013931492159205A800F05AFF98B90F2357
:10053800009303230193002302930393049304215C
:10054800684601F063FA40B901F0C0FE17B05DF8E3
:1005580004FBFFF7B7FFFFF7B5FFFFF7B3FF00BFD7
:100568000010024008B500F0ABFDFFF7ADFF00F04A
:100578001DF800F0DDF900F071F900F0F3F900F072
:1005880063FA00F0B3FA00F00DFB00F027FB00F06F
:10059800DBFB4FF47A730B220249034802F0BDFEDD
:1005A800F7E700BF2C000020B00100202DE9F04F34
:1005B8008BB0002405940694079408940994A24BE0
:1005C800DA6C42F01002DA64DA6C02F0100200927F
:1005D800009ADA6C42F00402DA64DA6C02F004027F
:1005E8000192019ADA6C42F00102DA64DA6C02F0E4
:1005F80001020292029ADA6C42F00202DA64DA6CC0
:1006080002F002020392039ADA6C42F00802DA64FA
:10061800DB6C03F008030493049B8C4D22464FF4D3
:100628008A71284601F05AFF224648F204114FF019
:10063800904001F053FF864F22464FF2140138468E
:1006480001F04CFFDFF80C92224641F28101484646
:1006580001F044FF01224FF40051484601F03EFFEB
:10066800DFF8F4A122464FF41071504601F036FF2E
:1006780001222021384601F031FF01221146284687
:1006880001F02CFF40F215130593012606960794F6
:10069800089405A9284601F021FE6A2305934FF422
:1006A800881BCDF818B0079405A9284601F016FE56
:1006B8004FF4005305934FF404130693079405A9C8
:1006C800504601F00BFE3F2305930B230693079436
:1006D80005A9504601F002FE4FF00308CDF814803A
:1006E800022506950794CDF820800823099305A9CB
:1006F8004FF0904001F0F2FD48F20413059306967E
:100708000794089405A94FF0904001F0E7FD0823ED
:100718000593069507940894099605A94FF090400B
:1007280001F0DCFD102305930B230693079405A91C
:100738004FF0904001F0D2FDE02305930695079411
:10074800CDF820800523099305A94FF0904001F0CA
:10075800C5FD0596CDF818B0079405A9384601F0EF
:10076800BDFD05950B230693079405A9384601F0AE
:10077800B5FD4FF23403059306960794089405A92E
:10078800384601F0ABFD4CF604430593CDF818B09C
:10079800079405A9484601F0A1FD43F2810305939A
:1007A80006960794089405A9484601F097FD4FF46A
:1007B8001073059306960794089405A9504601F00E
:1007C8008DFD4FF4C0730593CDF818B0079405A9B3
:1007D800504601F083FD059506950794CDF82080D5
:1007E8000523099305A9484601F078FD7823059368
:1007F80006950794CDF820800723099305A9484654
:1008080001F06CFD4FF4407305931223069307948F
:10081800CDF820800423099305A9384601F05EFD30
:1008280022462146172002F013F8172002F048F854
:1008380022462146282002F00BF8282002F040F832
:100848000BB0BDE8F08F00BF001002400010004858
:1008580000040048000C00480008004808B50E488D
:100868000E4B036001220271002383600221C160E4
:10087800036143614FF480718161C36104210162A6
:1008880043628262C362036300F06EFB00B908BD75
:10089800FFF718FEFBE700BF3C0000202060014086
:1008A80000B5ABB000212591269127912891299177
:1008B800882203A803F0C6F81A4B1B6813B12BB0A3
:1008C8005DF804FB4FF48033039303A801F0D4FAD6
:1008D80028BB154B1A6E42F080721A661A6E02F027
:1008E80080720192019ADA6C42F01002DA64DB6CD1
:1008F80003F010030293029B4FF420732593022305
:1009080026930023279328930623299325A907488C
:1009180001F0E4FC034A136801331360CFE7FFF7E3
:10092800D1FDD6E738000020001002400010004832
:1009380000B583B00A4B9A6C42F001029A649B6C32
:1009480003F001030193019B002211460F2001F0DF
:100958007FFF0F2001F0B4FF03B05DF804FB00BF78
:100968000010024008B51348134B036040F61463A7
:100978004360002383600122C26003614361836195
:10098800C361036200F0D2FB50B90021094800F0AE
:100998002BFC40B90021074800F054FC30B908BDD1
:1009A800FFF790FDF1E7FFF78DFDF3E7FFF78AFD0D
:1009B800F5E700BF740000200058004010B5AAB049
:1009C8000446002125912691279128912991882272
:1009D80003A803F037F82268184B9A4201D02AB0CE
:1009E80010BD8023039303A801F046FA10BB144CF2
:1009F800E36C43F00203E364E36C03F00203019346
:100A0800019B4FF4406325931223269301232793D8
:100A1800032328930423299325A90A4801F05EFC9F
:100A2800A36D43F48003A365A36D03F480030293CD
:100A3800029BD4E7FFF746FDD9E700BF0058004006
:100A4800001002400004004808B50A480A4B036039
:100A580002234360042383601023C36017230361C8
:100A680000234361836101F079FF00B908BDFFF7F6
:100A780029FDFBE7C0000020001000A000B589B0E8
:100A88000023039304930593069307930268154B79
:100A98009A4202D009B05DF804FB03F1204303F544
:100AA80000331A6D42F480721A651A6D02F480726E
:100AB8000192019ADA6C42F01002DA64DB6C03F0FE
:100AC80010030293029B4FF47C4303930223049385
:100AD800032306930A23079303A9034801F0FEFBA7
:100AE800D8E700BF001000A00010004808B5104863
:100AF800104B03604FF482734360002383604FF40C
:100B08004072C260036143614FF400728261C36145
:100B18000362436283620722C2620363082343635A
:100B280001F070FF00B908BDFFF7CCFCFBE700BF80
:100B380004010020003C004000B589B00023039365
:100B480004930593069307930268144B9A4202D0C4
:100B580009B05DF804FB03F5EA339A6D42F40042EC
:100B68009A659A6D02F400420192019ADA6C42F099
:100B78000402DA64DB6C03F004030293029B4FF473
:100B8800E053039302230493032306930623079356
:100B980003A9034801F0A2FBDAE700BF003C0040CC
:100BA8000008004808B50B480B4B03604FF4E133CD
:100BB800436000238360C36003610C224261836148
:100BC800C3610362436202F072FC00B908BDFFF71B
:100BD80079FCFBE7B00100200038014008B50B485C
:100BE8000B4B03604FF4E133436000238360C36021
:100BF80003610C2242618361C3610362436202F0B4
:100C080056FC00B908BDFFF75DFCFBE73402002085
:100C18000048004070B5ACB00446002127912891E7
:100C280029912A912B91882205A802F00BFF2368AD
:100C38003E4A934204D03E4A93424AD02CB070BDFB
:100C48000123059305A801F017F900283BD1394B7A
:100C58001A6E42F480421A661A6E02F480420192B9
:100C6800019ADA6C42F00202DA64DB6C03F00203E8
:100C78000293029BC02327930226289600252995D4
:100C880003232A9307232B9327A92B4801F026FB3C
:100C98002A482B4B036046608560C560802303614A
:100CA80045618561C561056201F02CFC70B9234B73
:100CB80023679C6200221146252001F0C9FD2520EA
:100CC80001F0FEFDBAE7FFF7FDFBC0E7FFF7FAFB0F
:100CD800EDE70423059305A801F0CEF810BB154BEA
:100CE8009A6D42F480229A659A6D02F480220392EA
:100CF800039ADA6C42F00802DA64DB6C03F008034A
:100D08000493049B4FF440732793022328930023F2
:100D1800299303232A9307232B9327A9094801F032
:100D2800DDFA8BE7FFF7CEFBD9E700BF00380140BB
:100D380000480040001002400004004868010020FC
:100D480058000240000C004808B50B484FF0A0437B
:100D58000360062343600223C36083610023C361E9
:100D68000362436283620363C36202F0D2FB00B989
:100D780008BDFFF7A7FBFBE7B802002030B5ABB012
:100D880004460021259126912791289129918822AE
:100D980003A802F057FE2368B3F1A04F01D02BB08F
:100DA80030BD4FF4005303934FF080631E9301232B
:100DB80004930593182306930723079302230893A4
:100DC80009934FF480130A9303A801F055F80028FB
:100DD80040D1234CE36C43F00103E364E36C03F07C
:100DE80001030093009B4FF400732593002526957B
:100DF800279525A94FF0904001F070FA4FF4E05381
:100E08002593022326932795032328930A232993BE
:100E180025A94FF0904001F061FAE36C43F4805348
:100E2800E364E36C03F480530193019BA36D13F017
:100E3800805F12D1A36D43F08053A365A36D03F0C7
:100E480080530293029B01F0E9FCA36D23F08053C9
:100E5800A365A4E7FFF736FBBBE701F0DFFC9EE7DD
:100E680000100240FEE7FEE7FEE7FEE7FEE77047F8
:100E78007047704708B500F033F908BD08B5024857
:100E880001F011FC08BD00BF6801002008B5202052
:100E980001F02AFB402001F027FB802001F024FB11
:100EA8004FF4807001F020FB08BD000008B502482F
:100EB80001F05EFE08BD00BFB001002008B54FF488
:100EC800806001F011FB4FF4006001F00DFB4FF45E
:100ED800005001F009FB4FF4804001F005FB4FF48E
:100EE800004001F001FB08BD82B00A4B1A6E42F0C7
:100EF80001021A661A6E02F001020092009A9A6DB7
:100F080042F080529A659B6D03F080530193019BD8
:100F180002B0704700100240124B984215D020339F
:100F2800984214D02033984213D04033984212D0BC
:100F38002033984211D02033984210D02033984261
:100F480001D0032070470720704700207047012018
:100F5800704702207047042070470520704706201C
:100F6800704700BF00600140002878D010B50446E3
:100F78000068FFF7D1FF3B4B53F820300BB101203D
:100F880010BD2046FFF78CFC374B1A6801321A60F7
:100F98001B68012B45D02268136823F47143136042
:100FA80021680A68236960690343A06903431343FE
:100FB8000B602268136823F00F03136021680B6825
:100FC800E269206A024313430B602268936823F4A2
:100FD8005F03936020688368626AA16A013942EA04
:100FE8000142134383602268536803F00703536088
:100FF80021684A68E06A236BDB0043EA0023134355
:101008004B602268136843F080031360012384F85F
:1010180034302068FFF780FF124B43F8204000204F
:10102800AEE7124B1A6822F080421A601A68A1686B
:101038000A431A601A6822F47F021A602379012B86
:1010480005D00A4A136843F000431360A3E7074931
:101058000B68E268013A43EA02430B60F1E70120BA
:10106800704700BFC0060020E00600200060014075
:10107800104B1B780BB90120704710B504464FF48C
:101088007A70B0FBF3F30C4A1068B0FBF3F001F090
:1010980025FC68B90F2C01D901200AE0002221465D
:1010A8004FF0FF3001F0D4FB044B1C60002000E03F
:1010B800012010BD000000200800002004000020CE
:1010C80010B5032001F0B2FB0020FFF7D1FF10B1EB
:1010D8000124204610BD0446FFF706FFF9E700008B
:1010E800034B1B78034A11680B441360704700BF19
:1010F80000000020E4060020014B1868704700BF7C
:10110800E406002038B50446FFF7F6FF0546B4F1BB
:10111800FF3F02D0044B1B781C44FFF7EDFF401B38
:10112800A042FAD338BD00BF00000020002859D0E3
:1011380010B5044690F84130002B43D0242384F89E
:1011480041302268136823F0010313606368226842
:1011580023F0706313612268936823F4004393605B
:10116800E368012B33D0A368226843F404439360F7
:10117800E368022B31D02268536843F0007343F4CC
:10118800004353602268D36823F40043D360236983
:1011980062691343A169226843EA0123D360E369C2
:1011A800216A22680B4313602268136843F0010325
:1011B800136000206064202384F84130206384F8A1
:1011C800420010BD80F84030FFF7F8FBB6E7A3688F
:1011D800226843F400439360CAE723684FF400622F
:1011E8005A60C8E70120704790F84130DBB2202BE5
:1011F80024D190F84030012B22D0012380F84030D0
:10120800242380F841300268136823F00103136037
:101218000268136823F48053136002681368194343
:1012280011600268136843F001031360202380F8FB
:101238004130002380F8403018467047022070473C
:101248000220704790F84130DBB2202B22D190F871
:101258004030012B20D0012380F84030242380F82F
:1012680041300268136823F00103136002681368B1
:1012780023F4706343EA012111600268136843F0A4
:1012880001031360202380F84130002380F84030A8
:1012980018467047022070470220704730B583B067
:1012A8000446204B9B6D13F0805F0BD001F066FA6B
:1012B800B0F5007F17D0802C1FD82DD0702C2DD0E2
:1012C80000211BE0174DAB6D43F08053AB65AB6D50
:1012D80003F080530193019B01F050FAAB6D23F0AA
:1012E8008053AB65E4E7802C03D9A02C03D90221F5
:1012F80004E0002102E0012100E003210A4A13680A
:1013080023F007030B431360136803F007038B42B2
:1013180006D1002003B030BD0221EFE70121EDE73F
:101328000120F7E70010024000200240284A936895
:10133800D26802F0030213F00C030AD00C2B06D07B
:10134800042B1FD0082B20D00020024610E0012AD1
:10135800F6D11F4A126812F0080F0CD11C4AD2F8B5
:101368009420C2F303221B4951F8222043B10020E4
:101378000C2B0DD07047164A1268C2F30312F2E71D
:101388001046F5E714480022F2E714480022EFE778
:101398000F4BDB6803F00303022B16D0032B00D19D
:1013A8000E4A0B49C868C0F30210431CC868C0F352
:1013B800062002FB00F0B0FBF3F0CB68C3F34163F7
:1013C80001335B00B0FBF3F0D4E7034AE9E700BF61
:1013D80000100240903A00080024F40000127A003D
:1013E800002800F0FC82F0B583B00446964B9D6857
:1013F80005F00C05DE6806F00306036813F0100F0D
:101408005AD0E5B10C2D18D0A369002B00F0BB8091
:101418008D4A136843F001031360FFF76DFE07461A
:10142800894B1B6813F0020F40F09A80FFF764FEA7
:10143800C01B0228F4D90320DCE2012EE4D1824B40
:101448001B6813F0020F03D0A369002B00F0C982B8
:10145800206A7D4B1B6813F0080F5BD07A4B1B6822
:1014680003F0F00398425CD8774B1A6842F0080200
:101478001A601A6822F0F002216A0A431A605A6850
:1014880022F47F42E16942EA01225A60002D60D0CD
:10149800FFF74CFF6C4B9B68C3F303136B4AD35C99
:1014A80003F01F03D8406A4B18606A4B1868FFF7AF
:1014B800DFFD002840F09E82236813F0010F00F042
:1014C8008180082D75D00C2D71D06368B3F5803FED
:1014D80000F09780B3F5A02F00F099805A4B1A6856
:1014E80022F480321A601A6822F480221A60636833
:1014F800002B00F09980FFF7FFFD0746524B1B6851
:1015080013F4003F5ED1FFF7F7FDC01B6428F5D93F
:1015180003206FE24C4BD3F894301B0903F0F0031F
:10152800A0E7FFF7BBFE002840F05D82464B1A6833
:1015380042F008021A601A6822F0F002216A0A438F
:101548001A605A6822F47F42E16942EA01225A602D
:101558009EE7206AFFF7A2FE002899D0012049E201
:10156800394B1A6842F008021A601A6822F0F00231
:10157800216A0A431A605A6822F47F42E16942EA02
:1015880001225A6098E7304A136823F00103136078
:10159800FFF7B2FD07462C4B1B6813F0020F8BD0E8
:1015A800FFF7AAFDC01B0228F5D9032022E2032E6B
:1015B8008BD1254B1B6813F4003F03D06368002BC5
:1015C80000F01382236813F0020F58D0042D45D081
:1015D8000C2D41D0E368002B77D01B4A136843F4E5
:1015E80080731360FFF788FD0646174B1B6813F4DA
:1015F800806F61D1FFF780FD801B0228F5D9032099
:10160800F8E1114A136843F4803313606FE703F17C
:101618008043A3F53C331A6842F480221A601A68A2
:1016280042F480321A6062E7FFF766FD0746064B10
:101638001B6813F4003FC5D0FFF75EFDC01B64288C
:10164800F5D90320D6E100BF00100240783A00081F
:101658000800002004000020022EBBD1954B1B6817
:1016680013F4806F03D0E368002B00F0C081914A27
:10167800536823F0F853216943EA016353602368F0
:1016880013F0080F4CD063699BB38A4AD2F89430A0
:1016980043F00103C2F89430FFF72EFD0646854B50
:1016A800D3F8943013F0020F3AD1FFF725FD801BD1
:1016B8000228F4D903209DE17E4A536823F0F853A9
:1016C800216943EA01635360D9E77A4A136823F42E
:1016D80080731360FFF710FD0646764B1B6813F402
:1016E800806FCCD0FFF708FD801B0228F5D90320B6
:1016F80080E1704AD2F8943023F00103C2F89430A4
:10170800FFF7FAFC06466B4BD3F8943013F0020F40
:1017180006D0FFF7F1FC801B0228F4D9032069E109
:10172800236813F0040F7AD0624B9B6D13F0805F2F
:1017380036D1604B9A6D42F080529A659B6D03F0EA
:1017480080530193019B01265B4B1B6813F4807F38
:1017580028D0A368012B39D0052B3FD0554BD3F89F
:10176800902022F00102C3F89020D3F8902022F0B4
:101778000402C3F89020A368002B3DD0FFF7BCFCFF
:1017880007464C4BD3F8903013F0020F46D1FFF7C1
:10179800B3FCC01B41F288339842F2D9032029E1F7
:1017A8000026D1E7444A136843F480731360FFF7B7
:1017B800A3FC0746404B1B6813F4807FC9D1FFF791
:1017C8009BFCC01B0228F5D9032013E1394AD2F843
:1017D800903043F00103C2F89030CCE7354BD3F892
:1017E800902042F00402C3F89020D3F8902042F0F1
:1017F8000102C3F89020BEE7FFF77EFC07462D4B99
:10180800D3F8903013F0020F08D0FFF775FCC01B17
:1018180041F288339842F2D90320EBE06EBBA36A09
:10182800002B00F0E680022B2DD00C2D00F0E88074
:10183800204B1A6822F080721A601B6813F0205F30
:1018480004D11C4AD36823F00303D360194AD36830
:1018580023F0887323F48033D360FFF74DFC0446EC
:10186800144B1B6813F0007F00F0B780FFF744FCAF
:10187800001B0228F4D90320BCE00E4A936D23F024
:1018880080539365CBE70B4BDB6803F00301E26AF7
:10189800914213D00C2D00F0AF80064B1B6813F05B
:1018A800806F40F0AB80034B1B6813F0805F31D032
:1018B80001209FE0001002400070004003F0700219
:1018C800216B0139B2EB011FE4D103F4FE42616BD5
:1018D800B2EB012FDED103F40031A26B073A18BF37
:1018E80001229142D6D103F4C001E26B5208013AB9
:1018F800B1EB425FCED103F0C063226C5208013ACB
:10190800B3EB426FC6D13F4B1B6813F0007F4AD040
:1019180000206FE03B4A136823F080731360FFF7E1
:10192800EBFB0546374B1B6813F0007F06D0FFF72B
:10193800E3FB401B0228F5D903205BE0314AD3685A
:1019480031491940E36A206B013843EA0013606BA0
:1019580043EA0023E06B4008013843EA4053206C17
:101968004008013843EA4063A06B000943EA40435A
:101978000B43D360136843F080731360D36843F05C
:101988008073D360FFF7B8FB04461E4B1B6813F047
:10199800007F06D1FFF7B0FB001B0228F5D9032012
:1019A80028E0002026E0174B1A6842F080721A607F
:1019B800DA6842F08072DA60FFF79EFB0446114B4A
:1019C8001B6813F0007F06D1FFF796FB031B022B61
:1019D800F5D903200EE000200CE000200AE00120E9
:1019E8007047012006E0012004E0012002E0012008
:1019F80000E0002003B0F0BD0120FBE70120F9E77B
:101A08000120F7E7001002408C809DF9002800F0C3
:101A1800988070B50C4605464E4B1B6803F00703CB
:101A28008B420BD24B4A136823F007030B43136016
:101A3800136803F007038B4240F085802B6813F08E
:101A4800010F39D06B68032B09D0022B26D063BB5A
:101A5800414A126812F0020F06D1012070E03E4A96
:101A6800126812F0007F70D03B498A6822F00302A6
:101A780013438B60FFF740FB0646374B9B6803F028
:101A88000C036A68B3EB820F16D0FFF735FB801B97
:101A980041F288339842F0D9032051E02E4A126867
:101AA80012F4003FE0D101204AE02B4A126812F4F8
:101AB800806FD9D1012043E02B6813F0020F06D0C4
:101AC800254A936823F0F003A9680B439360214BE0
:101AD8001B6803F00703A3420AD91E4A136823F0C0
:101AE800070323431360136803F00703A3422ED1AF
:101AF8002B6813F0040F06D0174A936823F4E063A9
:101B0800E9680B4393602B6813F0080F07D0124A5B
:101B1800936823F46053296943EAC1039360FFF78C
:101B280005FC0D4B9B68C3F303130C4AD35C03F00D
:101B38001F03D8400A4B18600A4B1868FFF798FA39
:101B480070BD012070470120FAE70120F8E7012065
:101B5800F6E700BF0020024000100240783A000873
:101B68000800002004000020014B1868704700BFDF
:101B78000800002008B5FFF7F7FF054B9B68C3F383
:101B88000223044AD35C03F01F03D84008BD00BFFA
:101B980000100240883A000808B5FFF7E5FF054B3A
:101BA8009B68C3F3C223044AD35C03F01F03D840E5
:101BB80008BD00BF00100240883A0008F8B5044686
:101BC8000F46594BDB6813F0030F18D0564BDB68F0
:101BD80003F003030268934202D001252846F8BDAA
:101BE800002A00F09E80504BDB68C3F302130133D8
:101BF8004268934201D00125F0E7002509E0036817
:101C0800022B57D0032B5CD0012B42D00125002D8D
:101C1800E4D1454A136823F080631360FFF76CFA38
:101C28000646414B1B6813F0006F05D0FFF764FAB6
:101C3800831B022BF5D90325002DCFD1002F4ED1C0
:101C480039490B6923F41F3323F44073A068E26811
:101C58001209520442EA002213430B61324A136804
:101C680043F080631360FFF747FA06462E4B1B6864
:101C780013F0006F05D1FFF73FFA831B022BF5D94C
:101C88000325002DAAD1284A1369A1690B431361C2
:101C9800A4E7254A126812F0020F1ED02248C26833
:101CA80022F073026168013943EA01131343C360E8
:101CB8000025ACE71C4A126812F4806FEED10125AA
:101CC800A5E7194A126812F4003FE7D1164A1268CC
:101CD80012F4802FE2D1012599E7012597E7012F1A
:101CE8000FD01148026922F0C06222F4FE42A168B6
:101CF80063695B08013B5B0643EA01231343036105
:101D0800ACE70948026922F4C00222F4FE42A16845
:101D180023695B08013B5B0543EA01231343036125
:101D28009CE701255AE700BF00100240F8B50446B9
:101D38000F46504BDB6813F0030F18D04D4BDB6890
:101D480003F003030268934202D001252846F8BD38
:101D5800002A00F08C80474BDB68C3F30213013381
:101D68004268934201D00125F0E7002509E00368A5
:101D7800022B57D0032B5CD0012B42D00125002D1C
:101D8800E4D13C4A136823F080531360FFF7B4F999
:101D98000646384B1B6813F0005F05D0FFF7ACF917
:101DA800831B022BF5D90325002DCFD1002F4ED14F
:101DB80030494B6923F41F3323F44073A068E26869
:101DC8001209520442EA002213434B61294A13685C
:101DD80043F080531360FFF78FF90646254B1B68C5
:101DE80013F0005F05D1FFF787F9831B022BF5D9A4
:101DF8000325002DAAD11F4A536961690B4353611A
:101E0800A4E71C4A126812F0020F1ED01948C268D3
:101E180022F073026168013943EA01131343C36076
:101E28000025ACE7134A126812F4806FEED1012541
:101E3800A5E7104A126812F4003FE7D10D4A12686C
:101E480012F4802FE2D1012599E7012597E7094887
:101E5800426922F0C06222F4FE42A16823695B084D
:101E6800013B5B0643EA012313434361AEE70125C7
:101E78006CE700BF001002402DE9F04182B0044633
:101E8800036813F4006F33D0436EB3F5000F1FD00F
:101E98000CD823B3B3F5800F05D100212030FFF70C
:101EA80045FF064620E001273E4623E0B3F5400FF4
:101EB8000BD10026604AD2F8883023F44003616EC3
:101EC8000B43C2F88830002714E001273E4611E092
:101ED800594AD36843F48033D3600026EAE70021E7
:101EE8000430FFF76BFE0646002EE3D0374601E0CC
:101EF80000273E46236813F4805F30D0A36EB3F109
:101F0800007F1FD00DD81BB3B3F1807F06D100210D
:101F180004F12000FFF70AFF064605E001273E46C8
:101F28001DE0B3F1407F0AD1C6B9434AD2F88830E0
:101F380023F04073A16E0B43C2F888300FE00127ED
:101F48003E460CE03C4AD36843F48033D360EBE769
:101F58000021201DFFF732FE0646E5E737462368D5
:101F680013F4003F71D0344B9B6D13F0805F4ED15A
:101F7800314B9A6D42F080529A659B6D03F0805305
:101F88000193019B4FF001082C4A136843F48073B6
:101F98001360FFF7B1F80546284B1B6813F4807FE0
:101FA80005D1FFF7A9F8401B0228F5D90326002E12
:101FB80046D1214BD3F8903013F4407316D0D4F89F
:101FC80084209A4212D01C4AD2F8903023F44073ED
:101FD800D2F8901041F48031C2F89010D2F89010E5
:101FE80021F48031C2F89010C2F8903013F0010F3C
:101FF80010D1002E40F027810F4AD2F8903023F4F8
:102008004073D4F884100B43C2F8903019E04FF0B5
:102018000008B9E7FFF770F80546074BD3F890308A
:1020280013F0020FE5D1FFF767F8401B41F2883340
:102038009842F2D90326DCE7001002400070004005
:102048003746B8F1000F40F00081236813F0010F04
:1020580008D09D4AD2F8883023F00303A16B0B43C4
:10206800C2F88830236813F0020F08D0964AD2F8D5
:10207800883023F00C03E16B0B43C2F888302368E7
:1020880013F0040F08D0904AD2F8883023F03003B8
:10209800216C0B43C2F88830236813F0080F08D06E
:1020A800894AD2F8883023F0C003616C0B43C2F828
:1020B8008830236813F0100F08D0834AD2F888308C
:1020C80023F44073A16C0B43C2F88830236813F0E3
:1020D800200F08D07C4AD2F8883023F44063E16CA2
:1020E8000B43C2F88830236813F4007F08D0764A7F
:1020F800D2F8883023F44023E16D0B43C2F88830CE
:10210800236813F4806F08D06F4AD2F8883023F41C
:102118004013216E0B43C2F88830236813F0400F38
:1021280008D0694AD2F8883023F44053216D0B4314
:10213800C2F88830236813F0800F08D0624AD2F8BA
:10214800883023F44043616D0B43C2F8883023681C
:1021580013F4807F08D05C4AD2F8883023F44033E7
:10216800A16D0B43C2F88830236813F4005F0FD0C9
:10217800554AD2F8883023F04063E16E0B43C2F829
:102188008830E36EB3F1006F65D0B3F1806F67D02C
:10219800236813F4002F0FD04B4AD2F8883023F06D
:1021A8004063216F0B43C2F88830236FB3F1006F8F
:1021B8005ED0B3F1806F60D0236813F4802F0FD006
:1021C800414AD2F8883023F04063616F0B43C2F86C
:1021D8008830636FB3F1006F57D0B3F1806F59D077
:1021E800236813F4804F0FD0374AD2F8883023F091
:1021F8004053A16F0B43C2F88830A36FB3F1805FDF
:1022080050D0B3F1005F55D0236813F4004F08D0C5
:102218002D4AD2F8883023F08043E16F0B43C2F88F
:102228008830236813F4803F09D0274AD2F88830D1
:1022380023F00043D4F880100B43C2F888303846A6
:1022480002B0BDE8F0813746FBE61F4A936D23F0E4
:1022580080539365F9E6D36843F48013D36097E716
:102268000121201DFFF7AAFC002891D007468FE71F
:10227800D36843F48013D3609EE70121201DFFF744
:102288009DFC002898D0074696E7D36843F480134E
:10229800D360A5E70121201DFFF790FC00289FD0FF
:1022A80007469DE70221201DFFF788FC0028ABD0D8
:1022B8000746A9E7022104F12000FFF737FD0028AF
:1022C800A2D00746A0E700BF00100240024A1368E8
:1022D80043F004031360704700100240F0B583B068
:1022E80000236BE085685E000324B44025EA0405FA
:1022F800CC68B4402C438460456825EA0C054C68DA
:10230800C4F300149C402C43446069E0C56A25EA84
:102318000C0CC4F3C0049C4044EA0C04C46265E09D
:10232800DD08083550F8256003F007044FEA840CEF
:102338000F2404FA0CF426EA040E0C6904FA0CF4CF
:1023480044EA0E0440F8254067E0062400E0002433
:1023580004FA0EF42C430CF1020C5C4D45F82C40A9
:102368005B4CA568D44325EA02064F6817F4801F22
:1023780001D042EA0506564DAE60ED6804EA05064E
:102388004F6817F4001F01D042EA0506504DEE6071
:102398006D6804EA05064F6817F4003F01D042EA69
:1023A80005064B4D6E602D682C404E6816F4803F34
:1023B80001D042EA0504464A146001330A6832FA39
:1023C80003F400F081804FF0010C0CFA03FC1CEAC6
:1023D8000202F2D04C6804F00304013C012C81D9BC
:1023E8004C6804F0030EBEF1030F8FD04C6804F064
:1023F8000304032C0CD0C4685D004FF0030C0CFAE6
:1024080005FC24EA0C0C8C68AC4044EA0C04C4605B
:102418004C6804F00304022C82D004684FEA430E8F
:102428004FF0030C0CFA0EFC24EA0C0C4C6804F078
:10243800030404FA0EF444EA0C0404604C6814F42F
:10244800403FBAD0234C256E45F001052566246E21
:1024580004F001040194019C4FEA930C0CF102056D
:102468001A4C54F8255003F003044FEA840E0F2445
:1024780004FA0EF425EA0405B0F1904F3FF467AF73
:10248800154CA04216D004F58064A04214D004F57F
:102498008064A04212D004F58064A04210D004F5F4
:1024A8008064A0420ED004F58064A0423FF44DAF92
:1024B80007244DE701244BE7022449E7032447E7B3
:1024C800042445E7052443E703B0F0BD00000140BC
:1024D8000004014000100240000400480AB1816174
:1024E800704781627047704708B5054B5B690342C6
:1024F80000D108BD024B5861FFF7F5FFF9E700BFAF
:1025080000040140002873D010B403460068394A1B
:1025180090424AD8384A02443849A1FB02121209AB
:1025280092005A64364A1A64022283F82520016808
:1025380021F4FF4121F070019A68DC6822431C698C
:1025480022435C6922439C692243DC6922431C6A5A
:1025580022430A4302609A68B2F5804F1BD0196C77
:10256800274A91422CD0264AD2F8A814586C00F079
:102578001C0C0F2000FA0CF021EA0001C2F8A81484
:10258800D2F8A81458685C6C04F01C0C00FA0CF023
:102598000143C2F8A8140020D863012283F825203B
:1025A80083F824005DF8044B7047164A0244134927
:1025B800A1FB0212120992005A64134A1A64B3E783
:1025C800D2F8A810586C00F01C0C0F2000FA0CF080
:1025D80021EA0001C2F8A810D2F8A81058685C6C6B
:1025E80004F01C0C00FA0CF00143C2F8A810D2E762
:1025F8000120704707040240F8FFFDBFCDCCCCCCCA
:1026080000000240F8FBFDBF0004024090F82530AE
:10261800DBB2022B06D00423C363002380F82430E6
:10262800012070470268136823F00E0313600268E4
:10263800136823F001031360436C03F01C03016C5F
:10264800012202FA03F34B6080F82520002380F86A
:1026580024301846704708B590F82530DBB2022BB5
:1026680003D00423C363012008BD0268136823F064
:102678000E0313600268136823F001031360436CB0
:1026880003F01C03016C012202FA03F34B6080F88B
:102698002520002380F82430836B13B1984700204D
:1026A800E2E70020E0E738B5036C1968046825689C
:1026B800436C03F01C0304229A400A4215D015F01B
:1026C800040F12D0236813F0200F03D1236823F0DE
:1026D80004032360436C03F01C02016C0423934041
:1026E8004B60036B03B1984738BD02229A400A42F7
:1026F8001CD015F0020F19D0236813F0200F06D153
:10270800236823F00A032360012380F82530436CF3
:1027180003F01C02016C022393404B60002380F8F5
:102728002430C36A002BDFD09847DDE7082202FA7D
:1027380003F30B42D8D015F0080FD5D0236823F047
:102748000E032360436C03F01C03016C012202FAA0
:1027580003F34B60C26380F82520002380F82430FF
:10276800436B002BC0D09847BEE70000024A1368AD
:1027780043F480731360704700700040024B186880
:1027880000F4C060704700BF00700040B0F5007FE3
:102798000FD01F4B1B6803F4C063B3F5806F34D0B0
:1027A8001B4A136823F4C06343F48063136000205A
:1027B8007047174B1B6803F4C063B3F5007F20D044
:1027C800134A136823F4C06343F400731360114B76
:1027D8001B68322202FB03F30F4AA2FB03239B0C64
:1027E800013300E0013B0A4A526912F4806F01D0BC
:1027F800002BF7D1064B5B6913F4806F03D10020DF
:10280800704700207047032070470020704700BFC2
:10281800007000400800002083DE1B43024A536812
:1028280043F480635360704700700040074AD368E0
:1028380023F4E0631B041B0C000200F4E060034374
:1028480043F0BF6343F40033D360704700ED00E00A
:1028580000B5194BDB68C3F30223C3F1070CBCF1C5
:10286800040F28BF4FF0040C03F1040EBEF1060F4D
:1028780018D9033B4FF0FF3E0EFA0CFC21EA0C017D
:1028880099400EFA03F322EA0303194300280BDBED
:102898000901C9B200F1604000F5614080F80013F9
:1028A8005DF804FB0023E5E700F00F000901C9B259
:1028B800024B1954F4E700BF00ED00E014ED00E00E
:1028C800002807DB00F01F02400901239340024A59
:1028D80042F82030704700BF00E100E00138B0F155
:1028E800807F0BD24FF0E0235861054AF02182F82F
:1028F80023100020986107221A6170470120704751
:1029080000ED00E02DE9F84305460F4616469946C6
:10291800DDF820802C68A4683C4214BF4FF0010CFD
:102928004FF0000CB44514D0B8F1FF3FF2D0FEF7D9
:10293800E3FBA0EB0900404502D8B8F1000FE9D14C
:10294800042385F83930EB6B43F00103EB63012076
:1029580000E00020BDE8F8830164704770B582B0DC
:102968000446FEF7C9FB002C48D0064694F83930D7
:10297800002B38D025682A6822F47062A1680139D2
:1029880042EA01222A60236C009333460022202168
:102998002046FFF7B7FF08BB21680B6823F07F4389
:1029A80023F010036568E26842EA056213430B608E
:1029B80021684A68124B13402569626942EA054258
:1029C800A5692A4313434B602268136843F0010347
:1029D80013600023E363012384F83930002384F86B
:1029E800383002B070BD84F838302046FEF746F81B
:1029F80041F288312046FFF7AFFFBBE70120F0E73F
:102A0800FEF8E0FF00286AD010B50446436A33B9DF
:102A18004368B3F5827F05D00023C36102E0002339
:102A2800036143610023A36294F85D30002B4DD00D
:102A3800022384F85D302268136823F04003136092
:102A4800E368B3F5E06F47D90022B3F5706F04D09F
:102A5800B3F5E06F01D00023A362636803F48273C7
:102A6800A16801F404410B43216901F002010B4301
:102A7800616901F001010B43A16901F400710B4385
:102A8800E16901F038010B43216A01F080010B4331
:102A9800A16A01F4005120680B430360638B03F0C3
:102AA8000403616A01F010010B43616B01F0080136
:102AB8000B43E16801F470610B43216813434B60D9
:102AC80000202066012384F85D3010BD84F85C3056
:102AD8002046FEF731F8ABE74FF48052B5E7012006
:102AE8007047026852E8003F23F4907342E80031CF
:102AF8000029F6D1026802F1080353E8003F23F0E9
:102B08000103083242E800310029F3D1036E012B9A
:102B180005D02023C3670023036643667047026815
:102B280052E8003F23F0100342E800310029F6D1B3
:102B3800EFE7704708B5026852E8003F23F040030A
:102B480042E800310029F6D12023836700238366F9
:102B5800FFF7EFFF08BD704708B5806A0023A0F8AB
:102B68005A30A0F85230FFF7F6FF08BD7047000052
:102B780070B504460168CB6908688D6840F60F0295
:102B88001A4005D113F0200F02D010F0200F20D1E9
:102B98002AB115F0010222D1AC4E30421FD1226E6B
:102BA800012A00F0AB8013F4801F03D015F4800FC6
:102BB80040F0398113F0800F03D010F0800F40F0FF
:102BC800398113F0400F03D010F0400F40F03981E5
:102BD80070BD636E002BFBD020469847F8E713F0D2
:102BE800010F09D010F4807F06D001250D62D4F8BA
:102BF80080102943C4F8801013F0020F09D042B1A5
:102C0800216802250D62D4F8801041F00401C4F84F
:102C1800801013F0040F09D042B1216804250D6219
:102C2800D4F8801041F00201C4F8801013F0080FA6
:102C38000BD010F0200F00D13AB1226808211162A0
:102C4800D4F880200A43C4F8802013F4006F0CD015
:102C580010F0806F09D022684FF400611162D4F837
:102C6800802042F02002C4F88020D4F88020002A76
:102C7800AED013F0200F06D010F0200F03D0636EF3
:102C88000BB120469847D4F8802023689B6813F03E
:102C9800400F02D112F0280F29D02046FFF721FF5C
:102CA80023689B6813F0400F1DD0226802F10803C7
:102CB80053E8003F23F04003083242E8003100297E
:102CC800F3D1236F5BB1624A9A63206FFFF7C3FCAD
:102CD80000283FF47DAF206F836B984778E7204644
:102CE800FFF739FF74E72046FFF735FF70E7204606
:102CF800FFF731FF0023C4F8803069E713F0100FA5
:102D08003FF451AF10F0100F3FF44DAF10230B629A
:102D180023689B6813F0400F4ED0226F13685B68DE
:102D28009BB2002B3FF454AFB4F8581099427FF689
:102D38004FAFA4F85A3013681B6813F0200F30D136
:102D4800226852E8003F23F4807342E800310029EA
:102D5800F6D1226802F1080353E8003F23F001038B
:102D6800083242E800310029F3D1226802F1080351
:102D780053E8003F23F04003083242E800310029BD
:102D8800F3D12023E36700232366226852E8003F3B
:102D980023F0100342E800310029F6D1206FFFF735
:102DA80035FCB4F85810B4F85A309BB2C91A89B235
:102DB8002046FFF7DBFE0BE7B4F85810B4F85A309A
:102DC8009BB2C91A89B2B4F85A309BB2002B3FF4AF
:102DD800FFAE00293FF4FCAE226852E8003F23F41E
:102DE800907342E800300028F6D1226802F1080307
:102DF80053E8003F23F00103083242E8003000287E
:102E0800F3D12023E367002323666366226852E830
:102E1800003F23F0100342E800300028F6D1204696
:102E2800FFF7A4FED4E64FF480130B62204600F0AF
:102E38006FFBCDE6A36E002B3FF4CAAE2046984741
:102E4800C6E62046FFF776FEC2E600BF2001000472
:102E5800612B000810B504460168836802691343B2
:102E680042691343C269134308688E4A02401343F8
:102E78000B602268536823F44053E1680B435360A6
:102E8800A1692268884B9A4201D0236A1943936842
:102E980023F430630B4393602368844A934210D031
:102EA800834A934221D0834A934237D0824A93423D
:102EB8005CD0824A93426BD07B4A93427DD01022E9
:102EC8003AE002F55842D2F8882002F00302032AB9
:102ED80009D8DFE802F00204870601222CE0042268
:102EE8002AE0082228E0102226E002F5E632D2F88D
:102EF800882002F00C020C2A0ED8DFE802F0070D39
:102F08000D0D090D0D0D750D0D0D0B00002213E0B3
:102F1800042211E008220FE010220DE002F5E4324D
:102F2800D2F8882002F03002202A5FD01AD8002A6E
:102F38005ED0102A5ED104225B498B4276D0E069CC
:102F4800B0F5004F00F0A380082A00F20E81DFE8F8
:102F580012F0DD00F300DB000C01F6000C010C019F
:102F68000C01F900302A47D10822E5E702F5E232E0
:102F7800D2F8882002F0C002802A3FD004D8FAB3E1
:102F8800402A3FD10422D7E7C02A3DD10822D3E7FF
:102F980002F5E032D2F8882002F44072B2F5007FE0
:102FA80034D005D8A2B3B2F5807F33D10422C3E769
:102FB800B2F5407F30D10822BEE702F5C832D2F818
:102FC800882002F44062B2F5006F27D005D83AB3E2
:102FD800B2F5806F26D10422AEE7B2F5406F23D157
:102FE8000822A9E70222A7E70222A5E70222A3E70F
:102FF8000022A1E710229FE710229DE702229BE70B
:10300800002299E7102297E7102295E7022293E71A
:10301800002291E710228FE710228DE702228BE72A
:10302800002289E7102287E7102285E7082A00F2A4
:103038008C80DFE802F0088A2A8A278A8A8A0500B3
:103048004FF4004003E0FEF795FD00287FD062684A
:1030580002EB420383427CD8B0EB023F7BD8010EDF
:1030680000025308C0184FF0000341F10001FDF7BA
:10307800A7F8A0F54072124B9A426ED82368D86020
:10308800002055E0FEF752F9DFE70E48DFE7082A8F
:1030980065D8DFE802F019330564366464641D00FE
:1030A800084815E0F369FFEF008000400038014050
:1030B8000044004000480040004C004000500040E0
:1030C800FFFC0F000024F400FEF754FD002848D050
:1030D8006268530803EB4000B0FBF2F0A0F1100265
:1030E8004FF6EF739A423ED883B223F00F03C0F332
:1030F800420018432368D860002019E0FEF74CFD11
:10310800E4E7FEF713F9E1E71B4802E0FEF732FDBA
:1031180068B3636800EB5300B0FBF3F0A0F1100252
:103128004FF6EF739A4224D8236880B2D860002003
:1031380000236366A36610BDFEF72EFDE8E7FEF7E1
:10314800F5F8E5E74FF40040E3E70120F0E7002059
:10315800EEE70120ECE70120EAE70120E8E701209B
:10316800E6E70020E4E70120E2E70120E0E70020AD
:10317800DEE70120DCE700BF0024F400436A13F017
:10318800010F06D00268536823F40033816A0B43A9
:103198005360436A13F0020F06D00268536823F4A1
:1031A8008033C16A0B435360436A13F0040F06D09F
:1031B8000268536823F48023016B0B435360436A0E
:1031C80013F0080F06D00268536823F40043416BDC
:1031D8000B435360436A13F0100F06D002689368DC
:1031E80023F48053816B0B439360436A13F0200FE1
:1031F80006D00268936823F40053C16B0B439360B5
:10320800436A13F0400F0AD00268536823F480130E
:10321800016C0B435360036CB3F5801F0BD0436AFA
:1032280013F0800F06D00268536823F40023816CE2
:103238000B43536070470268536823F4C003416C22
:103248000B435360EBE72DE9F84305460F46164656
:103258009946DDF820802C68E46937EA04030CBF3E
:103268004FF0010C4FF0000CB44553D1B8F1FF3FBB
:10327800F1D0FDF741FFA0EB090040452DD8B8F18A
:10328800000F2AD02B681A6812F0040FE3D0DA690D
:1032980012F4006FDFD04FF400621A622A6852E815
:1032A800003F23F4D07342E800310029F6D12A68A0
:1032B80002F1080353E8003F23F00103083242E813
:1032C80000310029F3D12023AB67EB67C5F88030C4
:1032D800002385F8743003201DE02A6852E8003F77
:1032E80023F4D07342E800310029F6D12A6802F1AC
:1032F800080353E8003F23F00103083242E8003195
:103308000029F3D12023AB67EB67002385F87430DD
:10331800032000E00020BDE8F8832DE9F04383B0E6
:103328001E46C36F202B7ED104460D4690460029C9
:103338007DD0002A7DD090F87430012B7BD00123FA
:1033480080F874300023C0F880302222C2670366F8
:10335800FDF7D2FE0746A4F85880A4F85A80A3685F
:10336800B3F5805F06D0A3B9226972B9FF22A4F829
:103378005C2014E0226922B940F2FF12A4F85C2014
:103388000DE0FF22A4F85C2009E07F22A4F85C206D
:1033980005E0B3F1805F0DD00022A4F85C20B4F8FA
:1033A8005C80B3F5805F0FD04FF00009002384F8EC
:1033B80074301EE022691AB97F22A4F85C20EEE777
:1033C8003F22A4F85C20EAE7236913B14FF0000913
:1033D800ECE7A9460025E9E723689B8C08EA030384
:1033E80029F8023BB4F85A2092B2013A92B2A4F8F2
:1033F8005A20B4F85A309BB28BB100963B46002253
:1034080020212046FFF71FFFB8B9002DE4D023681C
:103418009A8C5FFA88F3134005F8013BE2E7202312
:10342800E367002000E0022003B0BDE8F08301203C
:10343800FAE70120F8E70220F6E70320F4E730B5C1
:1034480083B004460023C0F88030FDF755FE0546DA
:103458002268126812F0080F0DD123681B6813F058
:10346800040F16D12023A367E3670020206684F8A1
:10347800740003B030BD6FF07E4300930346002212
:103488004FF400112046FFF7DEFE0028E5D00320A8
:10349800EFE76FF07E4300932B4600224FF4800144
:1034A8002046FFF7D0FE0028DCD00320E1E768B310
:1034B80010B50446836F03B32423A36722681368F7
:1034C80023F0010313602046FFF7C4FC012813D042
:1034D800636ABBB92268536823F490435360226837
:1034E800936823F02A0393602268136843F001036A
:1034F80013602046FFF7A3FF10BD80F87430FDF776
:1035080089FBD9E72046FFF739FEE3E7012070473A
:10351800704770B58AB0002800F0978005460468A7
:1035280090F8BD333BB3032385F8BD33E36B13F445
:10353800807F01D100232B61286800F0DDF82C463C
:1035480054F8106BEC460FCCACE80F000FCCACE88D
:103558000F0094E803008CE803002B1D0ECB3046C7
:1035680000F0AEF8044658B1022385F8BD330124B3
:1035780020460AB070BD80F8BC33FDF7FFFBD2E7E8
:103588000021286800F0D4F9234616E0C3EBC302F3
:1035980005EB8202012182F83D1082F83C30A2F846
:1035A8004230002182F83F1051649164C3EBC3029A
:1035B80005EB820211650133DBB269688B42E5D302
:1035C80016E0C4EBC40305EB8303002283F8FD2156
:1035D80083F8FC4183F8FF21C3F80422C3F80822CA
:1035E800C4EBC40305EB8303C3F810220134E4B22F
:1035F800A142E6D82C4654F8106BEC460FCCACE848
:103608000F000FCCACE80F0094E803008CE803002F
:103618002B1D0ECB304600F0C7F8044660B90023D6
:1036280085F83830012385F8BD336B6A012B08D043
:10363800286800F06BF99BE7022385F8BD33012465
:1036480096E7284600F003F8F2E7012490E70346DE
:1036580002680121C0F8FC13002083F8F403936981
:1036680043F000639361536D43F0805343F00303C9
:103678005365704782B000230193019B0133019386
:103688000E4A934214D80369002BF6DA00230193FB
:10369800036943F001030361019B01330193074A66
:1036A800934208D8036913F0010FF5D1002000E018
:1036B800032002B070470320FBE700BF400D030062
:1036C80084B010B504460DF10C0C8CE80E00C368EC
:1036D80043F04003C360FFF7CDFF0C9B3BB9A36BDE
:1036E80043F48033A363BDE8104004B07047A36B74
:1036F80023F48033A363F6E7836823F00103836030
:103708000020704782B000230193019B013301938D
:103718000E4A934214D80369002BF6DA002301936A
:10372800890141F020010161019B01330193074A9E
:10373800934208D8036913F0200FF5D1002000E068
:10374800032002B070470320FBE700BF400D0300D1
:1037580082B000230193019B013301930D4A9342E8
:1037680012D80369002BF6DA0023019310230361B2
:10377800019B01330193074A934208D8036913F068
:10378800100FF5D1002000E0032002B0704703209D
:10379800FBE700BF400D0300D0F800381943C0F81C
:1037A800001800207047000084B02DE9F04104465D
:1037B80007A880E80E00002306E003F1400204EBAE
:1037C80082020021516001330E2BF6D9119F8FBB65
:1037D800D4F8043843F00203C4F80438A36B23F484
:1037E8000013A363236843F040032360236843F076
:1037F800800323600023C4F8003E04F50065D4F874
:103808000038C4F8003803212046FFF7C5FF10210F
:103818002046FFF777FF804608B14FF001082046A1
:10382800FFF796FF08B14FF0010800232B616B6189
:10383800EB610FE0A36B43F40013A363DAE7C3B9AA
:103848004FF00060C2F8000900220A614FF67F328B
:103858008A6001330799994210D904EB431202F5A3
:103868001061D2F800090028E9DB0020C2F800093D
:10387800EAE74FF09040C2F80009E5E700230AE0C4
:10388800C3B14FF0904CC2F800CB002202614FF652
:103898007F3282600133994211D904EB431202F559
:1038A8003060D2F8006B002EEADB4FF0000CC2F853
:1038B80000CBEAE74FF0006CC2F800CBE5E72B69D4
:1038C80023F480732B610023A3616FF0804363614D
:1038D800A36943F01003A361A2690B4B1343A361CF
:1038E8000D9B1BB1A36943F00803A361012F04D00A
:1038F8004046BDE8F04104B07047A36943F08043F7
:1039080043F00403A361F3E700383C80D0F8003E9D
:1039180023F00303C0F8003ED0F8043843F0020354
:10392800C0F8043800207047406900F00100704773
:1039380038B50546C36823F0C043C360012913D0D6
:1039480019BBC36843F08043C36000240120FDF71E
:10395800D9FB01342846FFF7E7FF08B1312CF5D928
:10396800322C14D0002038BDC36843F00053C36024
:1039780000240120FDF7C6FB01342846FFF7D4FFD9
:103988000128EDD0312CF4D9EAE70120EBE701203A
:10399800E9E70000034AD2F8883043F47003C2F81C
:1039A8008830704700ED00E0DFF834D0FFF7F2FF11
:1039B8000C480D490D4A002302E0D458C450043382
:1039C800C4188C42F9D30A4A0A4C002301E0136058
:1039D8000432A242FBD300F011F8FCF7C3FDFEE766
:1039E800008001200000002010000020D83A0008C4
:1039F80010000020E8060020FEE7000070B50D4D1D
:103A08000D4C641BA4100026A64209D10B4D0C4C8A
:103A180000F020F8641BA4100026A64205D170BD52
:103A280055F8043B98470136EEE755F8043B9847AC
:103A38000136F2E7C83A0008C83A0008C83A000850
:103A4800CC3A000802440346934200D1704703F879
:103A5800011BF9E7F8B500BFF8BC08BC9E467047E3
:103A6800F8B500BFF8BC08BC9E46704700000000CF
:103A78000000000000000000010203040607080916
:103A88000000000001020304A0860100400D0300AD
:103A9800801A060000350C0040420F0080841E008A
:103AA80000093D0000127A000024F40000366E017F
:083AB8000048E801006CDC028B
:083AC00038C7FF7F0100000080
:083AC800AD0100080000000040
:083AD00089010008000000005C
:103AD800010000001000000000093D000000000087
:04000005080039B105
:00000001FF
